{
  "contractName": "Calculator",
  "abi": [
    {
      "inputs": [
        {
          "internalType": "uint256",
          "name": "num1",
          "type": "uint256"
        },
        {
          "internalType": "uint256",
          "name": "num2",
          "type": "uint256"
        }
      ],
      "name": "add",
      "outputs": [
        {
          "internalType": "uint256",
          "name": "",
          "type": "uint256"
        }
      ],
      "stateMutability": "view",
      "type": "function",
      "constant": true
    },
    {
      "inputs": [
        {
          "internalType": "uint256",
          "name": "num1",
          "type": "uint256"
        },
        {
          "internalType": "uint256",
          "name": "num2",
          "type": "uint256"
        }
      ],
      "name": "subtract",
      "outputs": [
        {
          "internalType": "uint256",
          "name": "",
          "type": "uint256"
        }
      ],
      "stateMutability": "view",
      "type": "function",
      "constant": true
    },
    {
      "inputs": [
        {
          "internalType": "uint256",
          "name": "num1",
          "type": "uint256"
        },
        {
          "internalType": "uint256",
          "name": "num2",
          "type": "uint256"
        }
      ],
      "name": "multiply",
      "outputs": [
        {
          "internalType": "uint256",
          "name": "",
          "type": "uint256"
        }
      ],
      "stateMutability": "view",
      "type": "function",
      "constant": true
    },
    {
      "inputs": [
        {
          "internalType": "uint256",
          "name": "num1",
          "type": "uint256"
        },
        {
          "internalType": "uint256",
          "name": "num2",
          "type": "uint256"
        }
      ],
      "name": "divide",
      "outputs": [
        {
          "internalType": "uint256",
          "name": "",
          "type": "uint256"
        }
      ],
      "stateMutability": "view",
      "type": "function",
      "constant": true
    }
  ],
  "bytecode": "0x608060405234801561001057600080fd5b5061037d806100206000396000f3fe608060405234801561001057600080fd5b506004361061004c5760003560e01c8063165c4a16146100515780633ef5e44514610081578063771602f7146100b1578063f88e9fbf146100e1575b600080fd5b61006b600480360381019061006691906101a4565b610111565b60405161007891906101f3565b60405180910390f35b61009b600480360381019061009691906101a4565b610127565b6040516100a891906101f3565b60405180910390f35b6100cb60048036038101906100c691906101a4565b61013d565b6040516100d891906101f3565b60405180910390f35b6100fb60048036038101906100f691906101a4565b610153565b60405161010891906101f3565b60405180910390f35b6000818361011f919061023d565b905092915050565b60008183610135919061027f565b905092915050565b6000818361014b91906102b3565b905092915050565b600081836101619190610316565b905092915050565b600080fd5b6000819050919050565b6101818161016e565b811461018c57600080fd5b50565b60008135905061019e81610178565b92915050565b600080604083850312156101bb576101ba610169565b5b60006101c98582860161018f565b92505060206101da8582860161018f565b9150509250929050565b6101ed8161016e565b82525050565b600060208201905061020860008301846101e4565b92915050565b7f4e487b7100000000000000000000000000000000000000000000000000000000600052601160045260246000fd5b60006102488261016e565b91506102538361016e565b92508282026102618161016e565b915082820484148315176102785761027761020e565b5b5092915050565b600061028a8261016e565b91506102958361016e565b92508282039050818111156102ad576102ac61020e565b5b92915050565b60006102be8261016e565b91506102c98361016e565b92508282019050808211156102e1576102e061020e565b5b92915050565b7f4e487b7100000000000000000000000000000000000000000000000000000000600052601260045260246000fd5b60006103218261016e565b915061032c8361016e565b92508261033c5761033b6102e7565b5b82820490509291505056fea2646970667358221220d48a52cc6e026e1fa72a24025d8ae629e4a1818bcbb77d5ab08c9f14a32312ee64736f6c63430008110033",
  "immutableReferences": {},
  "source": "// SPDX-License-Identifier: GPL-3.0\n\npragma solidity >=0.7.0 <0.9.0;\n\n/**\n * @title Calculator\n * @dev Calculator app\n * @custom:dev-run-script ./scripts/deploy_with_ethers.ts\n */\ncontract Calculator {\n\n    /**\n     * @dev Calculate the addition of two numbers\n     * @param num1, num2\n     */\n    function add(uint256 num1, uint256 num2) public view returns(uint){\n        return uint256(num1+num2);\n    }\n\n    /**\n     * @dev Calculate the subtraction of two numbers\n     * @param num1, num2\n     */\n    function subtract(uint256 num1, uint256 num2) public view returns(uint){\n        return uint256(num1-num2);\n    }\n\n    /**\n     * @dev Calculate the multiply of two numbers\n     * @param num1, num2\n     */\n    function multiply(uint256 num1, uint256 num2) public view returns(uint){\n        return uint256(num1*num2);\n    }\n\n    /**\n     * @dev Calculate the divide of two numbers\n     * @param num1, num2\n     */\n    function divide(uint256 num1, uint256 num2) public view returns(uint){\n        return uint256(num1/num2);\n    }\n}\n\n",
  "sourcePath": "/home/seansanders/GitHub/Blockchain_Class/Class_Examples/Truffle_Example_1/contracts/calculator.sol",
  "compiler": {
    "name": "solc",
    "version": "0.8.17+commit.8df45f5f.Emscripten.clang"
  },
  "schemaVersion": "3.4.10",
  "updatedAt": "2022-11-04T18:06:11.734Z",
  "networkType": "ethereum",
  "devdoc": {
    "custom:dev-run-script": "./scripts/deploy_with_ethers.ts",
    "details": "Calculator app",
    "kind": "dev",
    "methods": {
      "add(uint256,uint256)": {
        "details": "Calculate the addition of two numbers",
        "params": {
          "num1": ", num2"
        }
      },
      "divide(uint256,uint256)": {
        "details": "Calculate the divide of two numbers",
        "params": {
          "num1": ", num2"
        }
      },
      "multiply(uint256,uint256)": {
        "details": "Calculate the multiply of two numbers",
        "params": {
          "num1": ", num2"
        }
      },
      "subtract(uint256,uint256)": {
        "details": "Calculate the subtraction of two numbers",
        "params": {
          "num1": ", num2"
        }
      }
    },
    "title": "Calculator",
    "version": 1
  },
  "userdoc": {
    "kind": "user",
    "methods": {},
    "version": 1
  }
}